{
  "transactions": [
    {
      "hash": "0x8622f250489977717668edcf294cba7bbcf46c0105d2e4bbac92586ded73f305",
      "transactionType": "CREATE",
      "contractName": "TestToken",
      "contractAddress": "0x840d650ce282d3896ad6484c097c22be4e1b4f7b",
      "function": null,
      "arguments": null,
      "transaction": {
        "from": "0x16c5a04519c9c73fee01a6d1cb15aa0b9c36c8a6",
        "gas": "0x81b56",
        "value": "0x0",
        "input": "0x608060405234801561000f575f80fd5b505f69d3c21bcecceda10000009050805f803373ffffffffffffffffffffffffffffffffffffffff1673ffffffffffffffffffffffffffffffffffffffff1681526020019081526020015f20819055503373ffffffffffffffffffffffffffffffffffffffff165f73ffffffffffffffffffffffffffffffffffffffff167fddf252ad1be2c89b69c2b068fc378daa952ba7f163c4a11628f55a4df523b3ef836040516100bc91906100e2565b60405180910390a3506100fb565b5f819050919050565b6100dc816100ca565b82525050565b5f6020820190506100f55f8301846100d3565b92915050565b6105f0806101085f395ff3fe608060405234801561000f575f80fd5b5060043610610055575f3560e01c806306fdde0314610059578063313ce5671461007757806370a082311461009557806395d89b41146100c5578063a9059cbb146100e3575b5f80fd5b610061610113565b60405161006e91906103a9565b60405180910390f35b61007f61014c565b60405161008c91906103e4565b60405180910390f35b6100af60048036038101906100aa919061045b565b610151565b6040516100bc919061049e565b60405180910390f35b6100cd610165565b6040516100da91906103a9565b60405180910390f35b6100fd60048036038101906100f891906104e1565b61019e565b60405161010a9190610539565b60405180910390f35b6040518060400160405280600981526020017f54657374546f6b656e000000000000000000000000000000000000000000000081525081565b601281565b5f602052805f5260405f205f915090505481565b6040518060400160405280600281526020017f545400000000000000000000000000000000000000000000000000000000000081525081565b5f815f803373ffffffffffffffffffffffffffffffffffffffff1673ffffffffffffffffffffffffffffffffffffffff1681526020019081526020015f2054101561021e576040517f08c379a00000000000000000000000000000000000000000000000000000000081526004016102159061059c565b60405180910390fd5b815f803373ffffffffffffffffffffffffffffffffffffffff1673ffffffffffffffffffffffffffffffffffffffff1681526020019081526020015f205f8282540392505081905550815f808573ffffffffffffffffffffffffffffffffffffffff1673ffffffffffffffffffffffffffffffffffffffff1681526020019081526020015f205f82825401925050819055508273ffffffffffffffffffffffffffffffffffffffff163373ffffffffffffffffffffffffffffffffffffffff167fddf252ad1be2c89b69c2b068fc378daa952ba7f163c4a11628f55a4df523b3ef8460405161030d919061049e565b60405180910390a36001905092915050565b5f81519050919050565b5f82825260208201905092915050565b5f5b8381101561035657808201518184015260208101905061033b565b5f8484015250505050565b5f601f19601f8301169050919050565b5f61037b8261031f565b6103858185610329565b9350610395818560208601610339565b61039e81610361565b840191505092915050565b5f6020820190508181035f8301526103c18184610371565b905092915050565b5f60ff82169050919050565b6103de816103c9565b82525050565b5f6020820190506103f75f8301846103d5565b92915050565b5f80fd5b5f73ffffffffffffffffffffffffffffffffffffffff82169050919050565b5f61042a82610401565b9050919050565b61043a81610420565b8114610444575f80fd5b50565b5f8135905061045581610431565b92915050565b5f602082840312156104705761046f6103fd565b5b5f61047d84828501610447565b91505092915050565b5f819050919050565b61049881610486565b82525050565b5f6020820190506104b15f83018461048f565b92915050565b6104c081610486565b81146104ca575f80fd5b50565b5f813590506104db816104b7565b92915050565b5f80604083850312156104f7576104f66103fd565b5b5f61050485828601610447565b9250506020610515858286016104cd565b9150509250929050565b5f8115159050919050565b6105338161051f565b82525050565b5f60208201905061054c5f83018461052a565b92915050565b7f696e73756666696369656e742062616c616e63650000000000000000000000005f82015250565b5f610586601483610329565b915061059182610552565b602082019050919050565b5f6020820190508181035f8301526105b38161057a565b905091905056fea26469706673582212203c5056b6d88fe6f3e30ac8c86a25771f58b5579c0b76ddbacfa5546dd32edea664736f6c63430008140033",
        "nonce": "0x2",
        "chainId": "0x88bb0"
      },
      "additionalContracts": [],
      "isFixedGasLimit": false
    },
    {
      "hash": "0xf5bca69c85ba430200b74859344df2aef12949148e04465641f7f96bf20e7c7c",
      "transactionType": "CREATE",
      "contractName": "SimplePool",
      "contractAddress": "0xcb5a0cdba2d932e86715701d36222a911c4ccbc3",
      "function": null,
      "arguments": null,
      "transaction": {
        "from": "0x16c5a04519c9c73fee01a6d1cb15aa0b9c36c8a6",
        "gas": "0x1537e",
        "value": "0x0",
        "input": "0x6080604052348015600e575f80fd5b50603e80601a5f395ff3fe60806040525f80fdfea26469706673582212202ded572e2a41740d53536d31d30cede159f2f2f5a350358716a5eabba23745ce64736f6c63430008140033",
        "nonce": "0x3",
        "chainId": "0x88bb0"
      },
      "additionalContracts": [],
      "isFixedGasLimit": false
    },
    {
      "hash": "0x75ac7b0e7395b849397d956a205c8d115f438821630e8f22ee4ac2a33b44fc6d",
      "transactionType": "CALL",
      "contractName": "TestToken",
      "contractAddress": "0x840d650ce282d3896ad6484c097c22be4e1b4f7b",
      "function": "transfer(address,uint256)",
      "arguments": [
        "0xCb5a0CdBa2d932E86715701d36222a911c4CcBC3",
        "200000000000000000000000"
      ],
      "transaction": {
        "from": "0x16c5a04519c9c73fee01a6d1cb15aa0b9c36c8a6",
        "to": "0x840d650ce282d3896ad6484c097c22be4e1b4f7b",
        "gas": "0x118b8",
        "value": "0x0",
        "input": "0xa9059cbb000000000000000000000000cb5a0cdba2d932e86715701d36222a911c4ccbc3000000000000000000000000000000000000000000002a5a058fc295ed000000",
        "nonce": "0x4",
        "chainId": "0x88bb0"
      },
      "additionalContracts": [],
      "isFixedGasLimit": false
    }
  ],
  "receipts": [
    {
      "status": "0x1",
      "cumulativeGasUsed": "0x13c44b5",
      "logs": [
        {
          "address": "0x840d650ce282d3896ad6484c097c22be4e1b4f7b",
          "topics": [
            "0xddf252ad1be2c89b69c2b068fc378daa952ba7f163c4a11628f55a4df523b3ef",
            "0x0000000000000000000000000000000000000000000000000000000000000000",
            "0x00000000000000000000000016c5a04519c9c73fee01a6d1cb15aa0b9c36c8a6"
          ],
          "data": "0x00000000000000000000000000000000000000000000d3c21bcecceda1000000",
          "blockHash": "0x575cdbb0bf12c352d04fe66d2721a86d0d190fe0506617cd1f88cc4dd77abd39",
          "blockNumber": "0x1b52b0",
          "blockTimestamp": "0x69389094",
          "transactionHash": "0x8622f250489977717668edcf294cba7bbcf46c0105d2e4bbac92586ded73f305",
          "transactionIndex": "0x43",
          "logIndex": "0x9f",
          "removed": false
        }
      ],
      "logsBloom": "0x00000000000000000000000000000000000000000000000000000000000000000000000000000000000000000000000000000000000000000000000000000000000000000000000000000008000000000000000028000000000000000000000000000000020000000000000000000800000000000000000000000010000000000000000000000000000000000000000000000000000000000000000000000000000000000000000000000000080000000000000000000000000000000000000000000002000000000000000000000000000000000000000000000000000020000000000000000000008000000000020000000000000000000000000040000000",
      "type": "0x2",
      "transactionHash": "0x8622f250489977717668edcf294cba7bbcf46c0105d2e4bbac92586ded73f305",
      "transactionIndex": "0x43",
      "blockHash": "0x575cdbb0bf12c352d04fe66d2721a86d0d190fe0506617cd1f88cc4dd77abd39",
      "blockNumber": "0x1b52b0",
      "gasUsed": "0x63c6a",
      "effectiveGasPrice": "0x424a4cc8",
      "from": "0x16c5a04519c9c73fee01a6d1cb15aa0b9c36c8a6",
      "to": null,
      "contractAddress": "0x840d650ce282d3896ad6484c097c22be4e1b4f7b"
    },
    {
      "status": "0x1",
      "cumulativeGasUsed": "0x13d49db",
      "logs": [],
      "logsBloom": "0x00000000000000000000000000000000000000000000000000000000000000000000000000000000000000000000000000000000000000000000000000000000000000000000000000000000000000000000000000000000000000000000000000000000000000000000000000000000000000000000000000000000000000000000000000000000000000000000000000000000000000000000000000000000000000000000000000000000000000000000000000000000000000000000000000000000000000000000000000000000000000000000000000000000000000000000000000000000000000000000000000000000000000000000000000000000",
      "type": "0x2",
      "transactionHash": "0xf5bca69c85ba430200b74859344df2aef12949148e04465641f7f96bf20e7c7c",
      "transactionIndex": "0x44",
      "blockHash": "0x575cdbb0bf12c352d04fe66d2721a86d0d190fe0506617cd1f88cc4dd77abd39",
      "blockNumber": "0x1b52b0",
      "gasUsed": "0x10526",
      "effectiveGasPrice": "0x424a4cc8",
      "from": "0x16c5a04519c9c73fee01a6d1cb15aa0b9c36c8a6",
      "to": null,
      "contractAddress": "0xcb5a0cdba2d932e86715701d36222a911c4ccbc3"
    },
    {
      "status": "0x1",
      "cumulativeGasUsed": "0x13e1518",
      "logs": [
        {
          "address": "0x840d650ce282d3896ad6484c097c22be4e1b4f7b",
          "topics": [
            "0xddf252ad1be2c89b69c2b068fc378daa952ba7f163c4a11628f55a4df523b3ef",
            "0x00000000000000000000000016c5a04519c9c73fee01a6d1cb15aa0b9c36c8a6",
            "0x000000000000000000000000cb5a0cdba2d932e86715701d36222a911c4ccbc3"
          ],
          "data": "0x000000000000000000000000000000000000000000002a5a058fc295ed000000",
          "blockHash": "0x575cdbb0bf12c352d04fe66d2721a86d0d190fe0506617cd1f88cc4dd77abd39",
          "blockNumber": "0x1b52b0",
          "blockTimestamp": "0x69389094",
          "transactionHash": "0x75ac7b0e7395b849397d956a205c8d115f438821630e8f22ee4ac2a33b44fc6d",
          "transactionIndex": "0x45",
          "logIndex": "0xa0",
          "removed": false
        }
      ],
      "logsBloom": "0x00000000000000000000000000000000000000000000000000000000000000400000000000000000000000000000000800000000000000000000000000000000000000000000000000000008000000000000000028000000000000000000000000000000000000000000000000000000000000000000000000000010000000000000000000000000000000000000000000000000000000000000000000000000000000000000000000000000080000000000000000000000000000000000008000000002000000000000000000000000000000000000000000000000000000000000000000000000008000000000020000000000000000000000000040000000",
      "type": "0x2",
      "transactionHash": "0x75ac7b0e7395b849397d956a205c8d115f438821630e8f22ee4ac2a33b44fc6d",
      "transactionIndex": "0x45",
      "blockHash": "0x575cdbb0bf12c352d04fe66d2721a86d0d190fe0506617cd1f88cc4dd77abd39",
      "blockNumber": "0x1b52b0",
      "gasUsed": "0xcb3d",
      "effectiveGasPrice": "0x424a4cc8",
      "from": "0x16c5a04519c9c73fee01a6d1cb15aa0b9c36c8a6",
      "to": "0x840d650ce282d3896ad6484c097c22be4e1b4f7b",
      "contractAddress": null
    }
  ],
  "libraries": [],
  "pending": [],
  "returns": {},
  "timestamp": 1765314710537,
  "chain": 560048,
  "commit": "8bd9b86"
}